:0400000002001332B5
:03000B00020112DD
:10006C00E4F508F509F50AE4F50CF50D750E01E457
:10007C00F50F751001E4F511751201E4F513751403
:10008C0001E4F515751601E4F51775181EE4F5195C
:0E009C00E4F51AF51BC200C201C20202000EFA
:05000E001200E180FE7C
:1000AA00AA82AB83750A47E50A60047C0180027C58
:1000BA0000EC60228A088B09E508450960047C0186
:1000CA0080027C00EC600B150874FFB508EA15097C
:1000DA0080E6150A80D122D2AFD2A9758901D28CC5
:1000EA00D280D281D282D283D284D2A0D2A1D2A209
:1000FA00D2A3D2A4D2A520B005C28C1205EC30B08E
:10010A0002D28C12021880D8C021C0E0C0F0C0828E
:10011A00C083C002C003C004C005C006C007C00037
:10012A00C001C0D075D00012020D050B7464B50B66
:10013A000280030201F0750B00050CE4B50C020500
:10014A000D740AB50C06E4B50D028002800DE4F5C3
:10015A000CF50D050EE4B50E02050F7406B50E0674
:10016A00E4B50F028002800DE4F50EF50F0510E4E8
:10017A00B510020511740AB51006E4B51102800221
:10018A00800DE4F510F5110512E4B5120205137499
:10019A0006B51206E4B513028002800DE4F512F5E5
:1001AA00130514E4B514020515740AB51406E4B56A
:1001BA0015028002800DE4F514F5150516E4B5164E
:1001CA000205177402B51606E4B5170280028016F6
:1001DA007404B51406E4B5150280028009E4F51624
:1001EA00F517F514F515D0D0D001D000D007D006F8
:1001FA00D005D004D003D002D083D082D0F0D0E092
:10020A00D02132C28C758CD8758AEFD28C22E50D3A
:10021A0030E7030202BEC37409950C7480850DF0A1
:10022A0063F08095F050030202BEE50C250C250C04
:10023A0090023E7302025C02026602027002027AB5
:10024A0002028402028E0202980202A20202AC0296
:10025A0002B6D281D282D283D2848058C281D2821B
:10026A00D283D284804ED281C282D283D284804405
:10027A00C281C282D283D284803AD281D282C2839C
:10028A00D2848030C281D282C283D2848026D28133
:10029A00C282C283D284801CC281C282C283D284B7
:1002AA008012D281D282D283C2848008C281D28251
:1002BA00D283C28420B00AE51A451B7004C280802A
:1002CA0002D280C2A08518828519831200AAD2A000
:1002DA00E50F20E767C37405950E7480850FF063F8
:1002EA00F08095F04056E50E250E250E9002FA7321
:1002FA0002030C02031602032002032A0203340239
:10030A00033ED281D282D283D2848030C281D28209
:10031A00D283D2848026D281C282D283D284801CA4
:10032A00C281C282D283D2848012D281D282C28313
:10033A00D2848008C281D282C283D28420B011744E
:10034A0001B51A06E4B51B0280028004C28080024D
:10035A00D280C2A18518828519831200AAD2A1E58A
:10036A001130E70302040FC37409951074808511D4
:10037A00F063F08095F0500302040FE51025102574
:10038A001090038F730203AD0203B70203C1020385
:10039A00CB0203D50203DF0203E90203F30203FDE2
:1003AA00020407D281D282D283D2848058C281D2F7
:1003BA0082D283D284804ED281C282D283D2848076
:1003CA0044C281C282D283D284803AD281D282C28A
:1003DA0083D2848030C281D282C283D2848026D2E0
:1003EA0081C282C283D284801CC281C282C283D269
:1003FA00848012D281D282D283C2848008C281D2FE
:10040A0082D283C28420B0117402B51A06E4B51BE5
:10041A000280028004C2808002D280C2A285188231
:10042A008519831200AAD2A2E51320E767C37405CF
:10043A00951274808513F063F08095F04056E512AA
:10044A00251225129004527302046402046E0204F7
:10045A007802048202048C020496D281D282D28368
:10046A00D2848030C281D282D283D2848026D28141
:10047A00C282D283D284801CC281C282D283D284B5
:10048A008012D281D282C283D2848008C281D2826F
:10049A00C283D28420B0117403B51A06E4B51B02D4
:1004AA0080028004C2808002D280C2A3851882851D
:1004BA0019831200AAD2A3E51530E703020567C320
:1004CA007409951474808515F063F08095F05003D3
:1004DA00020567E514251425149004E7730205053F
:1004EA0002050F02051902052302052D020537022E
:1004FA00054102054B02055502055FD281D282D21F
:10050A0083D2848058C281D282D283D284804ED24E
:10051A0081C282D283D2848044C281C282D283D2EF
:10052A0084803AD281D282C283D2848030C281D27C
:10053A0082C283D2848026D281C282C283D284803C
:10054A001CC281C282C283D2848012D281D282D258
:10055A0083C2848008C281D282D283C28420B0112D
:10056A007404B51A06E4B51B0280028004C28080B6
:10057A0002D280C2A48518828519831200AAD2A445
:10058A00E4B51606E4B5170280187401B51606E438
:10059A00B5170280177402B51606E4B5170280165D
:1005AA00801CD281D282D283D2848012C281D2822A
:1005BA00D283D2848008D281C282D283D28420B0EC
:1005CA00117405B51A06E4B51B0280028004C280C4
:1005DA008002D280C2A58518828519831200AAD208
:1005EA00A52220B11F20011C051AE4B51A02051B19
:1005FA00D2017406B51A06E4B51B0280028005E42E
:10060A00F51AF51B30B1051001028000E51B30E731
:10061A0003020763C37405951A7480851BF063F09F
:10062A008095F05003020763E51A251A251A9006E9
:10063A003C7302064E02067F0206B00206E102077A
:10064A000D02073920B21F20021C050CE4B50C026A
:10065A00050DD202740AB50C06E4B50D02800280BB
:10066A0005E4F50CF50D20B203020763100203023C
:10067A00076302076320B21F20021C050EE4B50EB1
:10068A0002050FD2027406B50E06E4B50F02800207
:10069A008005E4F50EF50F20B2030207631002038A
:1006AA0002076302076320B21F20021C0510E4B58B
:1006BA0010020511D202740AB51006E4B5110280BF
:1006CA00028005E4F510F51120B203020763100257
:1006DA000302076302076320B21F20021C0512E40B
:1006EA00B512020513D2027406B51206E4B5130256
:1006FA0080028005E4F512F51330B25D1002028023
:10070A0058805620B21F20021C0514E4B5140205B5
:10071A0015D202740AB51406E4B5150280028005E2
:10072A00E4F514F51530B231100202802C802A202B
:10073A00B21F20021C0516E4B516020517D2027470
:10074A0003B51606E4B5170280028005E4F516F52E
:0C075A001730B2051002028000020218E5
:06004200E478FFF6D8FD92
:100020007900E94400601B7A0090076A780075A0A7
:1000300000E493F2A308B8000205A0D9F4DAF2753F
:02004000A0FF1F
:100048007800E84400600A790075A000E4F309D854
:10005800FC7800E84400600C7900900000E4F0A30C
:04006800D8FCD9FAED
:0D001300758121120766E582600302000E70
:040766007582002276
:00000001FF
